:020000040800F2
:10000000C007002089010008F9200008D11E00085F
:10001000F520000891020008E52600080000000015
:10002000000000000000000000000000A9210008FE
:100030009502000800000000692100080122000864
:10004000A3010008A3010008A3010008A301000800
:10005000A3010008A3010008A3010008A3010008F0
:10006000A3010008A3010008A3010008A3010008E0
:10007000A3010008A3010008A3010008A3010008D0
:10008000A3010008A3010008A3010008A3010008C0
:10009000A3010008A3010008A3010008A3010008B0
:1000A000A3010008A3010008A3010008A3010008A0
:1000B000A3010008A3010008A3010008A301000890
:1000C000A3010008A3010008A3010008A301000880
:1000D000A30100080926000871260008A3010008F2
:1000E000A3010008A3010008A301000800F002F822
:1000F00000F03AF80AA090E8000C82448344AAF188
:100100000107DA4501D100F02FF8AFF2090EBAE885
:100110000F0013F0010F18BFFB1A43F0010318473B
:10012000602D0000802D0000103A24BF78C878C1EF
:10013000FAD8520724BF30C830C144BF04680C60ED
:10014000704700000023002400250026103A28BF35
:1001500078C1FBD8520728BF30C148BF0B60704739
:100160001FB51FBD10B510BD00F058F81146FFF7C0
:10017000F7FF02F00FFE00F076F803B4FFF7F2FF8E
:1001800003BC00F07DF8000009488047094800479B
:10019000FEE7FEE7FEE7FEE7FEE7FEE7FEE7FEE737
:1001A000FEE7FEE704480549054A064B7047000094
:1001B00075220008ED000008C0010020C0070020E3
:1001C000C0030020C00300204FF0000200B513461A
:1001D00094469646203922BFA0E80C50A0E80C5067
:1001E000B1F12001BFF4F7AF090728BFA0E80C5018
:1001F00048BF0CC05DF804EB890028BF40F8042B11
:1002000008BF704748BF20F8022B11F0804F18BF7D
:1002100000F8012B7047704770477047754600F033
:100220002BF8AE4605006946534620F00700854688
:1002300018B020B5FFF7B6FFBDE820404FF000062C
:100240004FF000074FF000084FF0000BAC46ACE851
:10025000C009ACE8C009ACE8C009ACE8C00921F0AD
:1002600007018D46704710B50446AFF30080204665
:10027000BDE81040FFF781BF0048704790000020A4
:1002800001491820ABBEFEE72600020070470000BF
:10029000FFE7FEE77047000081B0EFF3108072B611
:1002A0000090FFE7FEE7000083B0019000208DF88A
:1002B0000300019890F8210002280DD0FFE7019972
:1002C00004208863FFE70199002081F82000FFE700
:1002D00001208DF80B0021E001980168086820F0EA
:1002E0000E00086001980168086820F001000860AD
:1002F0000198C16B026C012090404860FFE70199B2
:10030000012081F82100FFE70199002081F82000F9
:10031000FFE79DF803008DF80B00FFE79DF80B0049
:1003200003B0704780B588B0079000208DF81B009F
:10033000079890F82100022807D0FFE707990420CA
:10034000886301208DF81B0076E007980168086833
:1003500020F00E00086007980168086820F001008E
:100360000860079800680821C4F20201884203D19E
:10037000FFE70120059047E0079800681C21C4F2C0
:100380000201884203D1FFE71020049039E007986A
:1003900000683021C4F20201884204D1FFE74FF423
:1003A000807003902AE0079800684421C4F202019B
:1003B000884204D1FFE74FF4805002901BE0079879
:1003C00000685821C4F20201884204D1FFE74FF4CB
:1003D000803001900CE0079801686C22C4F20202A0
:1003E0004FF08070914208BF4FF480100190FFE7FA
:1003F00001980290FFE702980390FFE703980490AA
:10040000FFE704980590FFE705980421C4F2020174
:1004100008600799012081F82100FFE70799002073
:1004200081F82000FFE70798406B20B1FFE70798AD
:10043000416B8847FFE7FFE79DF81B0008B080BDD0
:1004400090B00F900E9100200D900990FFE70E984C
:1004500000680D99C840002800F07F81FFE70D99E2
:10046000012088400C900E9800680C9908400B9071
:100470000B980C99884240F06C81FFE70E98406819
:100480000590002851D0FFE7059801283AD0FFE7F2
:10049000059802283FD0FFE7059803285FD0FFE7C3
:1004A0000598112832D0FFE70598122838D0FFE7C9
:1004B00005980021C1F21101884236D0FFE7059866
:1004C0000021C1F2120188422FD0FFE705980021D8
:1004D000C1F22101884228D0FFE705980021C1F22E
:1004E0002201884221D0FFE705980021C1F23101A5
:1004F00088421AD0FFE705980021C1F232018842F4
:1005000013D02FE00E98C06809902CE00E98C068B8
:100510000430099027E00E98C0680830099022E066
:100520000E98C0680C3009901DE00E98806818B9CC
:10053000FFE70420099011E00E988068012806D199
:10054000FFE7082009900C980F99086105E0082042
:1005500009900C980F994861FFE7FFE703E000203E
:10056000099000E0FFE70B98FF2803D8FFE70F98FA
:10057000049003E00F9804300490FFE7049808907B
:100580000B98FF2804D8FFE70D988000039006E041
:100590000D996FF01F0000EB81000390FFE70398B7
:1005A000079008980068079A0F219140884309999D
:1005B00091400843089908600E98C079C006002849
:1005C00040F1C680FFE7FFE741F21800C4F20200E5
:1005D000016841F001010160006800F0010006902F
:1005E0000698FFE70D9820F003000821C4F20101EE
:1005F00040580A900D9800F0030081000F2000FA87
:1006000001F10A9888430A900F9840F60001C4F25D
:100610000101884203D1FFE70020029026E00F98F5
:1006200040F60041C4F20101884203D1FFE70120F6
:10063000019018E00F9841F20001C4F201018842D4
:1006400003D1FFE7022000900AE00F9941F2004237
:10065000C4F201020420914208BF03200090FFE78A
:1006600000980190FFE701980290FFE702980D992A
:1006700001F00301890000FA01F10A9808430A9089
:100680000A980D9921F003010822C4F20102885052
:100690000E988079C00748B1FFE70B9A40F20041FD
:1006A000C4F2010108681043086008E00B9A40F2A8
:1006B0000041C4F20101086890430860FFE70E980A
:1006C00080798007002809D5FFE70B9A40F20441A2
:1006D000C4F2010108681043086008E00B9A40F278
:1006E0000441C4F20101086890430860FFE70E98D6
:1006F0008079C006002809D5FFE70B9A40F208412F
:10070000C4F2010108681043086008E00B9A40F247
:100710000841C4F20101086890430860FFE70E98A1
:1007200080798006002809D5FFE70B9A40F20C413A
:10073000C4F2010108681043086008E00B9A40F217
:100740000C41C4F20101086890430860FFE7FFE72D
:10075000FFE70D9801300D9079E610B0704700006A
:1007600083B00290ADF806100298C0680090009A1D
:10077000BDF8060002EA0001904340EA01400299F8
:10078000086103B07047000082B00190ADF802101C
:100790008DF801209DF8010028B1FFE7BDF80200A7
:1007A0000199086105E0BDF80200000401990861A3
:1007B000FFE702B07047000040F2BC10C2F2000038
:1007C0000068704780B584B00290029820B9FFE7B6
:1007D00001208DF80F0037E0029801684CF6CC40FC
:1007E00008600298016845F2555008600298016857
:1007F000406848600298016880688860FFF7DCFF05
:100800000190FFE702980068C068800798B1FFE791
:10081000FFF7D2FF0199401A28280BD3FFE702986F
:100820000068C068800720B1FFE703208DF80F0043
:100830000AE0FFE7E6E7029801684AF6AA200860A6
:1008400000208DF80F00FFE79DF80F0004B080BD79
:1008500081B00090009801684AF6AA200860002044
:1008600001B0704740F28A00C2F20000027840F204
:10087000BC11C2F200010868104408607047000013
:1008800080B542F20001C4F20201086840F0100095
:100890000860032000F020F90F2000F005F800F0B8
:1008A000C5F8002080BD000080B582B0009040F205
:1008B0000000C2F20000006840F28A01C2F20001AA
:1008C0000A784FF47A71B1FBF2F1B0FBF1F000F06D
:1008D00011FE20B1FFE701208DF8070018E0009815
:1008E0000F280DD8FFE700994FF0FF30002200F0ED
:1008F000D9F8009840F28C01C2F20001086003E0D0
:1009000001208DF8070003E000208DF80700FFE7C5
:100910009DF8070002B080BD80B584B002900191BF
:10092000029820B9FFE701208DF80F004AE00298F5
:1009300090F83D0040B9FFE70299002081F83C00A3
:10094000029800F08BFFFFE70299242081F83D0018
:1009500002980168C86820F40050C860029801F04D
:1009600079FD02980168086920F400600861029826
:100970000168486920F02A00486102980168086906
:1009800040F48040086102980168086920F0200066
:100990000861019A02980168086910430861029889
:1009A0000168C86840F40050C860029900200864DB
:1009B000029A202182F83D10029A82F83E108DF8AA
:1009C0000F00FFE79DF80F0004B080BD82B00090DB
:1009D000FFE7009890F83C00012804D1FFE70220CF
:1009E0008DF807001DE00099012081F83C00FFE729
:1009F000FFE70099242081F83D0000980168C8684D
:100A000040F00100C8600099202081F83D00FFE718
:100A10000099002081F83C00FFE700208DF80700D6
:100A2000FFE79DF8070002B07047000083B0FFE7C2
:100A300041F21800C4F20200016841F001010160B6
:100A4000006800F0010002900298FFE7FFE741F222
:100A50001C00C4F20200016841F08051016000688E
:100A600000F0805001900198FFE7FFE70421C4F2F5
:100A7000010108680090009820F0E0600090009864
:100A800040F00070009000980860FFE703B07047E6
:100A900080B582B08DF807009DF9070001F024FEB3
:100AA00002B080BD80B586B08DF817000491039226
:100AB0000020029001F030FE02909DF91700019095
:100AC00002980499039A01F019FB0146019801F07C
:100AD0002BFE06B080BD000080B582B00190019869
:100AE00001F044FE02B080BD80B584B00290019157
:100AF000029820B9FFE701208DF80F001BE1019853
:100B000042F20001C4F20201096801F007018842C3
:100B100016D9FFE742F20000C4F20200016821F09A
:100B20000701019A11430160006800F00700019974
:100B3000884204D0FFE701208DF80F00FBE0FFE7BB
:100B400002980078800700282AD5FFE702980078ED
:100B50004007002809D5FFE741F20401C4F2020171
:100B6000086840F4E0600860FFE70298007800073A
:100B7000002809D5FFE741F20401C4F20201086828
:100B800040F460500860FFE741F20401C4F2020142
:100B9000086820F0F000029A926810430860FFE7AE
:100BA00002980078C007002860D0FFE702984068EC
:100BB00001280ED1FFE741F20000C4F202000068F4
:100BC0008003002804D4FFE701208DF80F00B2E075
:100BD00021E00298406802280ED1FFE741F20000B0
:100BE000C4F2020000688001002804D4FFE701205D
:100BF0008DF80F009FE00DE041F20000C4F202000A
:100C000000688007002804D4FFE701208DF80F005A
:100C100091E0FFE7FFE741F20401C4F20201086836
:100C200020F00300029A526810430860FFF7C4FDE9
:100C30000090FFE741F20400C4F20200006800F0F7
:100C40000C0002994968B0EB810F0ED0FFE7FFF767
:100C5000B3FD0099401A41F28931884204D3FFE77D
:100C600003208DF80F0066E0E4E7FFE7019842F209
:100C70000001C4F20201096801F00701884216D29E
:100C8000FFE742F20000C4F20200016821F0070110
:100C9000019A11430160006800F007000199884241
:100CA00004D0FFE701208DF80F0044E0FFE7029831
:100CB0000078400700280CD5FFE741F20401C4F298
:100CC0000201086820F4E060029AD26810430860CC
:100CD000FFE702980078000700280DD5FFE741F2F2
:100CE0000401C4F20201086820F46050029A1269FB
:100CF00040EAC2000860FFE700F04CF841F204014E
:100D0000C4F202010968C9B20A0942F66861C0F674
:100D10000001895CC84040F20001C2F20001086095
:100D200040F28C00C2F200000068FFF7BDFD002019
:100D30008DF80F00FFE79DF80F0004B080BD0000A4
:100D400040F20000C2F200000068704780B5FFF773
:100D5000F7FF41F20401C4F202010968C1F3022263
:100D600042F67861C0F60001895CC84080BD000091
:100D700080B5FFF7E5FF41F20401C4F20201096802
:100D8000C1F3C22242F67861C0F60001895CC84016
:100D900080BD00008BB040F60E70C1F210000A90CA
:100DA00040F60A30C0F60C50099040F20670C0F6CA
:100DB0000810089040F20230C0F20450079040F250
:100DC0000120ADF81A0000200590049003900290D5
:100DD000019041F20400C4F20200006805900598F9
:100DE00000F00C0001460091E0B3FFE700980428F2
:100DF00004D0FFE70098082806D034E041F2002034
:100E0000C0F27A00019034E00598C0F3834107A84E
:100E1000405C02909DF81600C007C0B1FFE741F2A8
:100E20000400C4F20200006800F400310DF11A0061
:100E300040EA514000780490029841F20021C0F24B
:100E40007A0148430499B0FBF1F0039007E002985F
:100E500040F60011C0F23D0148430390FFE70398BC
:100E6000019006E0FFE741F20020C0F27A00019015
:100E7000FFE701980BB0704780B586B004900498E6
:100E800020B9FFE701208DF817002EE304980078C1
:100E9000C007002800F0AE80FFE741F20400C4F272
:100EA0000200006800F00C00042813D0FFE741F2B4
:100EB0000400C4F20200006800F00C0008281BD1F6
:100EC000FFE741F20400C4F202000068C0030028FA
:100ED00012D5FFE741F20000C4F20200006880036F
:100EE000002808D5FFE70498406820B9FFE70120F3
:100EF0008DF81700F9E27CE0FFE704984068B0F550
:100F0000803F09D1FFE741F20001C4F20201086805
:100F100040F48030086032E00498406868B9FFE728
:100F200041F20001C4F20201086820F48030086038
:100F3000086820F48020086020E004984068B0F53C
:100F4000A02F0DD1FFE741F20001C4F202010868B1
:100F500040F480200860086840F4803008600CE0AD
:100F600041F20001C4F20201086820F480300860F8
:100F7000086820F480200860FFE7FFE7FFE7FFE74D
:100F800004984068D0B1FFE7FFF716FC0390FFE735
:100F900041F20000C4F202000068800300280CD473
:100FA000FFE7FFF709FC0399401A652804D3FFE720
:100FB00003208DF8170098E2EAE719E0FFF7FCFB41
:100FC0000390FFE741F20000C4F2020000688003D2
:100FD00000280CD5FFE7FFF7EFFB0399401A6528BF
:100FE00004D3FFE703208DF817007EE2EAE7FFE76E
:100FF000FFE7FFE7049800788007002840F18D8024
:10100000FFE741F20400C4F20200006810F00C0F88
:1010100013D0FFE741F20400C4F20200006800F0C0
:101020000C00082829D1FFE741F20400C4F20200B5
:101030000068C003002820D4FFE741F20000C4F29A
:10104000020000688007002809D5FFE704980069BE
:10105000012804D0FFE701208DF8170045E241F296
:101060000001C4F20201086820F0F800049A5269F5
:1010700040EAC2000860FFE74EE00498006958B3F8
:10108000FFE70021C4F2422101200860FFF794FB32
:101090000390FFE741F20000C4F2020000688007FD
:1010A00000280CD4FFE7FFF787FB0399401A0328B9
:1010B00004D3FFE703208DF8170016E2EAE741F2B8
:1010C0000001C4F20201086820F0F800049A526995
:1010D00040EAC20008601EE00021C4F24221002064
:1010E0000860FFF769FB0390FFE741F20000C4F2DC
:1010F00002000068800700280CD5FFE7FFF75CFBC3
:101100000399401A032804D3FFE703208DF8170042
:10111000EBE1EAE7FFE7FFE7FFE704980078000765
:10112000002848D5FFE70498806918B3FFE740F22C
:101130008041C4F2422101200860FFF73DFB03908B
:10114000FFE741F22400C4F2020000688007002893
:101150000CD4FFE7FFF730FB0399401A032804D3B0
:10116000FFE703208DF81700BFE1EAE7012000F058
:10117000FDFF1FE040F28041C4F2422100200860E0
:10118000FFF71AFB0390FFE741F22400C4F20200CC
:101190000068800700280CD5FFE7FFF70DFB0399D7
:1011A000401A032804D3FFE703208DF817009CE1C1
:1011B000EAE7FFE7FFE7049800784007002840F1DE
:1011C000D880FFE700208DF8070041F21C00C4F230
:1011D00002000068C000002813D4FFE7FFE741F2D7
:1011E0001C00C4F20200016841F0805101600068F7
:1011F00000F0805000900098FFE701208DF8070074
:10120000FFE747F20000C4F200000068C0050028B4
:1012100022D4FFE747F20001C4F20001086840F45D
:1012200080700860FFF7C8FA0390FFE747F20000FC
:10123000C4F200000068C00500280CD4FFE7FFF7E7
:10124000BBFA0399401A652804D3FFE703208DF801
:1012500017004AE1EAE7FFE7FFE70498C0680128C2
:1012600009D1FFE741F22001C4F20201086840F011
:101270000100086031E00498C06868B9FFE741F2F6
:101280002001C4F20201086820F00100086008682B
:1012900020F0040008601FE00498C06805280DD104
:1012A000FFE741F22001C4F20201086840F00400A7
:1012B0000860086840F0010008600CE041F220017D
:1012C000C4F20201086820F001000860086820F0FC
:1012D00004000860FFE7FFE7FFE7FFE70498C06846
:1012E000E0B1FFE7FFF768FA0390FFE741F2200063
:1012F000C4F202000068800700280ED4FFE7FFF761
:101300005BFA0399401A41F28931884204D3FFE71E
:1013100003208DF81700E8E0E8E71BE0FFF74CFA40
:101320000390FFE741F22000C4F20200006880074A
:1013300000280ED5FFE7FFF73FFA0399401A41F264
:101340008931884204D3FFE703208DF81700CCE0F1
:10135000E8E7FFE79DF80700012809D1FFE741F220
:101360001C01C4F20201086820F080500860FFE709
:10137000FFE70498C069002800F0B380FFE741F25E
:101380000400C4F20200006800F00C00082800F01D
:101390008280FFE70498C06902285CD1FFE76021E2
:1013A000C4F2422100200860FFF706FA0390FFE72D
:1013B00041F20000C4F202000068800100280CD550
:1013C000FFE7FFF7F9F90399401A032804D3FFE771
:1013D00003208DF8170088E0EAE70498006AB0F56A
:1013E000803F0CD1FFE741F20401C4F2020108681A
:1013F00020F40030049A926810430860FFE741F23D
:101400000401C4F20201086820F47410049B1A6AF3
:101410005B6A1A43104308606021C4F24221012034
:101420000860FFF7C9F90390FFE741F20000C4F23A
:1014300002000068800100280CD4FFE7FFF7BCF928
:101440000399401A032804D3FFE703208DF81700FF
:101450004BE0EAE71EE06021C4F242210020086070
:10146000FFF7AAF90390FFE741F20000C4F202007F
:101470000068800100280CD5FFE7FFF79DF903996C
:10148000401A032804D3FFE703208DF817002CE04F
:10149000EAE7FFE724E00498C069012804D1FFE7E8
:1014A00001208DF8170020E041F20400C4F2020090
:1014B00000680290029800F480300499096A88421A
:1014C00008D1FFE7029800F470100499496A884235
:1014D00004D0FFE701208DF8170006E0FFE7FFE7E3
:1014E000FFE700208DF81700FFE79DF8170006B012
:1014F00080BD000080B582B00190019800F056FEDA
:1015000002B080BD82B00190ADF8021002B0704709
:1015100081B0009001B0704780B588B007900798FF
:1015200000680068069007980068C06805900798F2
:10153000006840690490002003900290069800F033
:101540000F000390039888B9FFE79DF81800800604
:1015500000280AD5FFE79DF814008006002804D56E
:10156000FFE7079800F0D0FE76E1FFE70398002838
:1015700000F0B480FFE79DF81000C00738B9FFE71E
:10158000BDF8140010F4907F00F0A880FFE79DF8EC
:101590001800C00758B1FFE79DF81500C00730B12B
:1015A000FFE70799086C40F001000864FFE79DF829
:1015B0001800400700280BD5FFE79DF81000C00772
:1015C00030B1FFE70799086C40F002000864FFE7BC
:1015D0009DF81800800700280BD5FFE79DF8100044
:1015E000C00730B1FFE70799086C40F004000864B9
:1015F000FFE79DF818000007002811D5FFE79DF8C8
:1016000014008006002805D4FFE79DF81000C007ED
:1016100030B1FFE70799086C40F008000864FFE765
:101620000798006C002858D0FFE79DF81800800646
:1016300000280AD5FFE79DF814008006002804D58D
:10164000FFE7079800F060FEFFE707980068406931
:10165000C0F3801002900798006C0007002803D4A4
:10166000FFE7029888B3FFE7079800F015FE079898
:10167000006840694006002822D5FFE70798016806
:10168000486920F0400048610798806B98B1FFE7F7
:101690000798816B42F27920C0F6000048630798F2
:1016A000806BFEF73FFE28B1FFE70798806B416B28
:1016B0008847FFE703E00798FFF72AFFFFE703E00B
:1016C0000798FFF725FFFFE706E00798FFF720FFE1
:1016D000079900200864FFE7FFE7BDE00798006B6B
:1016E000012840F09980FFE79DF81800C006002807
:1016F00040F19280FFE79DF81400C006002840F1F9
:101700008B80FFE7FFE700200190079800680068E2
:10171000019007980068406801900198FFE70798DA
:10172000006840694006002848D5FFE70798806BAD
:1017300000684068ADF80200BDF80200E8B3FFE7BA
:10174000BDF802000799898D884236DAFFE7BDF8B7
:1017500002000799C8850798806B8069202824D0EB
:10176000FFE707980168C86820F48070C860079890
:101770000168486920F001004861079801684869DC
:1017800020F0400048610799202081F83E00079929
:101790000020086307980168C86820F01000C8603E
:1017A0000798806BFEF780FDFFE70798818DC28D5B
:1017B000891A89B2FFF7A6FEFFE74DE00799888DE9
:1017C000C98D401AADF800000798C08D18B3FFE727
:1017D000BDF80000F8B1FFE707980168C86820F479
:1017E0009070C86007980168486920F0010048615E
:1017F0000799202081F83E00079900200863079888
:101800000168C86820F01000C8600798BDF8001093
:10181000FFF778FEFFE71FE09DF81800000600289C
:101820000AD5FFE79DF814000006002804D5FFE75D
:10183000079800F09FFE0FE09DF818004006002872
:101840000AD5FFE79DF814004006002804D5FFE7FD
:10185000079800F045FDFFE708B080BD80B592B065
:101860001190002010900F900E900D90119800682C
:1018700043F60001C4F20101884243D1FFE7FFE7CC
:1018800041F21800C4F20200016841F48041016095
:10189000006800F480400C900C98FFE7FFE741F2ED
:1018A0001800C4F20200016841F004010160006800
:1018B00000F004000B900B98FFE74FF400700D90C0
:1018C00002200E900320109040F60000C4F20100A8
:1018D00005900DA90691FEF7B3FD059806994FF402
:1018E00080620D92002207920E920F92FEF7A8FDE1
:1018F000079A252008901146FFF7D4F80898FFF7BB
:10190000C7F84AE01198006844F20041C4F20001AF
:10191000884241D1FFE7FFE741F21C00C4F2020018
:10192000016841F400310160006800F400300A9061
:101930000A98FFE7FFE741F21800C4F202000168CD
:1019400041F004010160006800F00400099009986A
:10195000FFE704200D9002200E900320109040F627
:101960000000C4F2010001900DA90291FEF768FD8C
:101970000198029908220D92002203920E920F9272
:10198000FEF75EFD039A262004901146FFF78AF8C1
:101990000498FFF77DF8FFE7FFE712B080BD000075
:1019A00080B584B002900191ADF80220029890F8C1
:1019B0003E00202828D1FFE7019820B1FFE7BDF8BD
:1019C000020020B9FFE701208DF80F0020E0FFE7BB
:1019D000029890F83C00012804D1FFE702208DF81E
:1019E0000F0015E00299012081F83C00FFE7FFE7B6
:1019F00002990020086302980199BDF8022000F0C6
:101A000087FD8DF80F0003E002208DF80F00FFE73F
:101A10009DF80F0004B080BD80B588B0079000F03D
:101A2000C3FE55208DF81B0040F28900C2F2000071
:101A30000078023801460591042800F27681059964
:101A4000DFE811F005002D0001017301380140F2BB
:101A5000A910C2F200000078552812D1FFE740F229
:101A60008901C2F200010320087040F25C10C2F24A
:101A7000000040F2A911C2F200010122FFF790FF1D
:101A80000CE040F28901C2F200010120087040F22E
:101A90000C10C2F20000FEF7DBFEFFE746E140F269
:101AA000A910C2F2000000780D2823D1FFE740F210
:101AB0008901C2F2000103910420087040F25C1019
:101AC000C2F2000040F2AB11C2F200010522049202
:101AD000FFF766FF0399049B0720087040F2181077
:101AE000C2F2000040F2B012C2F200020D2101F079
:101AF00019F8A7E040F2A910C2F2000000788E2881
:101B00001DD1FFE740F28901C2F2000102910520D8
:101B1000087040F25C10C2F2000040F2F901C2F21B
:101B20000001092200F004F902990820087040F22F
:101B30001810C2F200008E2100F0D2FF81E040F2C6
:101B4000A910C2F2000000787D282BD1FFE740F2F7
:101B50000400C2F200000078FF280ED1FFE740F237
:101B60008901C2F200010720087040F21810C2F289
:101B700000007D2100F0B4FF13E040F28901C2F2C1
:101B800000010520087000F009FF40F25C10C2F26D
:101B9000000040F2A011C2F20001092200F0C8F8D2
:101BA000FFE74DE040F2A910C2F2000000783C28A7
:101BB00012D1FFE740F28901C2F20001042008704F
:101BC00040F25C10C2F2000040F20211C2F20001C9
:101BD0000922FFF7E5FE32E040F2A910C2F2000050
:101BE0000078BA281DD1FFE740F28901C2F2000156
:101BF00001910520087040F25C10C2F2000040F232
:101C0000B811C2F20001042200F092F801990820F4
:101C1000087040F21810C2F20000BA2100F060FF14
:101C20000CE040F28901C2F200010120087040F28C
:101C30000C10C2F20000FEF70BFEFFE7FFE7FFE724
:101C4000FFE7FFE772E040F2A910C2F2000000785F
:101C50000D2813D1FFE740F28901C2F200010720ED
:101C6000087040F21810C2F2000040F2B012C2F246
:101C700000020D21052300F055FFFFE740F2A910F7
:101C8000C2F2000000783C2813D1FFE740F20210B6
:101C9000C2F2000000F0F4FF40F28901C2F200013C
:101CA0000120087040F20C10C2F20000FEF7D0FDD7
:101CB000FFE73BE040F2A910C2F2000000788E2856
:101CC00011D1FFE740F2F000C2F20000027A40F2C8
:101CD000F901C2F200010A72026843684B600A60AF
:101CE00001F092F8FFE740F2A910C2F2000000787C
:101CF0008E280DD1FFE740F2B510C2F200008278C5
:101D000040F2B811C2F200018A7000880880FFE733
:101D100040F28901C2F200010120087040F20C106B
:101D2000C2F20000FEF794FD00E0FFE708B080BDBE
:101D300084B002900191ADF80220029890F83D0025
:101D400020283ED1FFE7019820B1FFE7BDF802004F
:101D500020B9FFE701208DF80F0036E0FFE7029879
:101D600090F83C00012804D1FFE702208DF80F0015
:101D70002BE00299012081F83C00FFE7FFE7019882
:101D800002990862BDF8020002998884BDF8020039
:101D90000299C8840299002008640299212081F8E0
:101DA0003D00FFE70299002081F83C00FFE7029820
:101DB0000168C86840F08000C86000208DF80F00FE
:101DC00003E002208DF80F00FFE79DF80F0004B03C
:101DD0007047000080B582B0019000F0E5FC40F251
:101DE0008900C2F20000007801460091052808D061
:101DF000FFE70098072811D0FFE7009808282FD0A8
:101E000063E040F28901C2F200010120087040F253
:101E10000C10C2F20000FEF71BFD57E040F2A910C3
:101E2000C2F2000000780D280DD1FFE740F2AB10A0
:101E3000C2F20000027940F2B011C2F200010A7150
:101E400000680860FFE740F28901C2F2000101204A
:101E5000087040F20C10C2F20000FEF7F9FC35E009
:101E600040F2A910C2F2000000788E2812D1FFE7DC
:101E700040F28901C2F200010620087040F21810F9
:101E8000C2F2000040F2F001C2F200010922FFF7A5
:101E900087FD1BE040F2A910C2F200000078BA28CA
:101EA00012D1FFE740F28901C2F20001062008705A
:101EB00040F21810C2F2000040F2B511C2F2000167
:101EC0000322FFF76DFD01E000E0FFE702B080BDF7
:101ED000FFE7FEE784B0039002918DF80720002011
:101EE000ADF8040003990A78BDF804101144ADF868
:101EF00004108DF80300FFE79DF803009DF807101C
:101F0000884210DAFFE702989DF80310415CBDF8A3
:101F100004000844ADF80400FFE79DF80300013019
:101F20008DF80300E8E7FFE7BDF80400B0F5807F17
:101F300006DBFFE7BDF80400FF38ADF80400F3E767
:101F4000BDF80400C0F1FF00ADF804009DF80400E6
:101F500004B0704780B590B000200F900E900D90A7
:101F60000C90FFE741F21800C4F20200016841F052
:101F700010010160006800F010000B900B98FFE763
:101F8000FFE741F21800C4F20200016841F02001AD
:101F90000160006800F020000A900A98FFE7FFE760
:101FA00041F21800C4F20200016841F0040101602E
:101FB000006800F0040009900998FFE7FFE741F28C
:101FC0001800C4F20200016841F0080101600068D5
:101FD00000F0080008900898FFE741F20000C4F202
:101FE000010002904FF40051009100220192FEF78F
:101FF000CBFB019A40F60000C4F2010006904FF4BA
:1020000001610391FEF7C0FB009A019902980C92BE
:10201000012204920D920E91022105910F910CA9BB
:102020000791FEF70DFADDF80CC0049B059A06989F
:102030000799CDF830C00D930E930F92FEF700FA7A
:1020400010B080BD80B540F20C10C2F2000043F227
:102050000001C4F200010160032141604FF47A7174
:102060008160FEF7AFFB18B1FFE7FEF715F9FFE758
:1020700080BD000080B582B040F21810C2F20000AE
:10208000019043F60001C4F2010101604FF4964152
:10209000416000218160C16001610C224261816167
:1020A0002021FEF739FC18B1FFE7FEF7F5F8FFE74E
:1020B00002B080BD80B582B040F25C10C2F2000078
:1020C000019044F20041C4F2000101604FF49641D6
:1020D000416000218160C16001610C224261816127
:1020E0002021FEF719FC18B1FFE7FEF7D5F8FFE74E
:1020F00002B080BDFFE7FEE7FFE7FEE788B007908C
:1021000006910592079800F0070004900498C0F12A
:102110000700052803D3FFE70420019004E004989A
:10212000C0F107000190FFE7019803900498043084
:10213000062803D8FFE70020009003E00498033846
:102140000090FFE70098029006980399012202FA96
:1021500001F101390840029B984005999A40013AE3
:102160001140084308B070477047000082B00190EA
:10217000019840F20001C2F200010968C90844F662
:10218000D352C1F26202A1FB0221890948430090A7
:10219000FFE700BFFFE70098411E00910028F8D13B
:1021A000FFE702B0704700007047000080B582B0C2
:1021B000009000980138B0F1807F03D3FFE7012041
:1021C000019019E0009801384EF21401CEF200019E
:1021D00008604FF0FF300F2100F0A6FA4EF2180110
:1021E000CEF20001002008604EF21002CEF2000292
:1021F000072111600190FFE7019802B080BD000047
:1022000080B5FEF72FFB80BD80B590B006A800908A
:102210002821FDF7D9FF0098002105910491039131
:10222000029101910A22069201220A9210230B9335
:102230000C9202220D920E914FF460110F91FEF755
:102240001BFE18B1FFE7FEF727F8FFE70F2001900C
:1022500002210291002003904FF4806204920590C5
:1022600001A8FEF741FC18B1FFE7FEF715F8FFE7FC
:1022700010B080BD7047000080B582B00190019819
:10228000406A009000990020C8850099C884009891
:10229000FFF73EF902B080BD81B000900098016860
:1022A000C86820F49070C86000980168486920F000
:1022B000010048610098006B012807D1FFE70098F2
:1022C0000168C86820F01000C860FFE7009920206E
:1022D00081F83E0000990020086301B070470000BB
:1022E00080B582B0019001980168C86820F0400074
:1022F000C8600199202081F83D000198FFF76AFD30
:10230000002002B080BD000080B586B00490049823
:1023100090F83E00222840F09480FFE704988068FF
:10232000B0F5805F15D1FFE70498006988B9FFE731
:10233000002003900498806A029004980068406826
:102340006FF35F20029908800499886A02308862DE
:1023500025E00498806A0390002002900498806829
:10236000B0F5805F08D0FFE70498806850B9FFE7B8
:102370000498006930B9FFE7049800684068039941
:10238000087007E004980068406800F07F00039937
:102390000870FFE70499886A01308862FFE70499B2
:1023A000C88D0138C8850004002846D1FFE704988D
:1023B0000168C86820F02000C86004980168C868F7
:1023C00020F48070C86004980168486920F001001A
:1023D00048610499202081F83E000498006B012890
:1023E00023D1FFE704990020086304980168C868B6
:1023F00020F01000C860049800680068C00600283B
:102400000ED5FFE7FFE70020019004980068006800
:10241000019004980068406801900198FFE7FFE789
:102420000498818DFFF76EF803E00498FFF7F4FA43
:10243000FFE700208DF8170007E000208DF8170057
:1024400003E002208DF81700FFE79DF8170006B0A3
:1024500080BD000080B584B00390039800680069D7
:1024600020F44050039A1168D26810430861039920
:1024700088680A6949691043084302900398006814
:10248000C06841F20C6188430299084303990968C6
:10249000C86003980068406920F44070039A11688E
:1024A0009269104348610398006843F60001C4F242
:1024B0000101884204D1FFE7FEF75AFC019003E0D6
:1024C000FEF744FC0190FFE7019819214843039A65
:1024D000116852689200B0FBF2FC48F21F52C5F23C
:1024E000EB12ACFB02304309642003FB10CC32201A
:1024F00000EB0C10A0FB0202F02000EA521000EBEF
:102500000310C2F343121044886004B080BD000081
:1025100083B002900191ADF802200198029988627F
:10252000BDF8020002998885BDF802000299C885AD
:102530000299002008640299222081F83E00FFE7FA
:102540000299002081F83C00FFE702980168C86802
:1025500040F48070C86002980168486940F001004A
:10256000486102980168C86840F02000C8600020F7
:1025700003B0704783B00190019890F83D00212886
:102580003AD1FFE701988068B0F5805F13D1FFE78B
:102590000198006978B9FFE70198006A00900098F7
:1025A00000886FF35F200199096848600199086A03
:1025B0000230086208E0019A106A411C116200783A
:1025C000019909684860FFE70199C88C0138C884FF
:1025D000000468B9FFE701980168C86820F080002E
:1025E000C86001980168C86840F04000C860FFE713
:1025F00000208DF80B0003E002208DF80B00FFE7B0
:102600009DF80B0003B0704780B584B040F21810FD
:10261000C2F200000190FEF77FFF01980068006899
:1026200003909DF80D00C00750B1FFE740F218106D
:10263000C2F200000168086820F48070086014E0AD
:102640009DF80C00800600280ED5FFE740F2181018
:10265000C2F2000001684968ADF80A100168086814
:1026600020F020000860FFE7FFE704B080BD000015
:1026700080B582B040F25C10C2F20000FEF74CFF61
:1026800040F28900C2F200000078012828D1FFE75B
:1026900040F25C10C2F200000068006801909DF8F2
:1026A0000500C007D8B1FFE740F25C10C2F200009D
:1026B0000268116821F48071116001684968ADF801
:1026C000021040F28902C2F200020221117040F2AF
:1026D000A911C2F200010122FFF762F9FFE7FFE74B
:1026E00002B080BDFFE7FEE781B08DF803009DF9E1
:1026F000030000280ED4FFE79DF9031001F01F022C
:10270000012090404A094EF20011CEF2000141F83A
:102710002200FFE701B070474EF60C50CEF20000E9
:102720000068C0F30220704782B08DF80700009166
:102730009DF9070000280AD4FFE7009800019DF9E1
:1027400007104EF20042CEF2000288540BE00098CF
:1027500000019DF8071001F00F014EF61452CEF261
:1027600000028854FFE702B07047000083B0029077
:10277000029800F0070000904EF60C51CEF20001D6
:102780000868019001984FF6FF02104001900198EF
:10279000009A40EA02200022C0F2FA52104301904F
:1027A0000198086003B0704780B541F20000C4F2A0
:1027B00001004FF40051FDF7D3FF80BD82B08DF8CA
:1027C00006008DF805109DF80600023801460091BC
:1027D000722800F2DA800099DFE811F073007700C8
:1027E000D700D7007B009900D700D700D700D700CB
:1027F0009D00D700D700D700D700D700A100BF00A9
:10280000D700C300C700D700D700CB00D700D70040
:10281000D700D700D700D700D700D700D700D70000
:10282000D700CF00D700D700D700D700D700D700F8
:10283000D700D700D700D700D700D700D700D700E0
:10284000D700D700D700D700D700D700D700D700D0
:10285000D700D700D700D700D700D700D700D700C0
:10286000D700D700D700D700D700D700D700D700B0
:10287000D700D700D700D700D700D700D700D700A0
:10288000D700D700D700D700D700D700D700D70090
:10289000D700D700D700D700D700D700D700D70080
:1028A000D700D700D700D700D700D700D700D70070
:1028B000D700D700D700D700D700D700D700D70060
:1028C000D30017208DF8070063E016208DF807006D
:1028D0005FE09DF80500012809DBFFE79DF8050092
:1028E000032804DCFFE718208DF8070051E09DF86D
:1028F00005000F2809DCFFE79DF805000D2804DB23
:10290000FFE719208DF8070043E0FFE7FFE71A20F3
:102910008DF807003DE014208DF8070039E09DF8A0
:102920000500012809DBFFE79DF80500032804DC0A
:10293000FFE711208DF807002BE09DF805000F2818
:1029400009DCFFE79DF805000D2804DBFFE71220F6
:102950008DF807001DE0FFE7FFE713208DF8070063
:1029600017E010208DF8070013E00F208DF8070006
:102970000FE00D208DF807000BE00E208DF807000A
:1029800007E015208DF8070003E000208DF8070010
:10299000FFE79DF8070002B07047000081B00020FB
:1029A0000090FFE70098082818DCFFE7009A40F243
:1029B0000400C2F20000007800EBC000111840F2E1
:1029C0000500C2F20000405C40F2A011C2F200011A
:1029D0008854FFE7009801300090E3E740F2880058
:1029E000C2F2000090F9000000280FD4FFE740F287
:1029F0000401C2F2000108780130087040F2880139
:102A0000C2F200010878013808700BE040F20401BE
:102A1000C2F20001FF20087040F28801C2F20001FA
:102A20000870FFE701B0704782B08DF806009DF88E
:102A30000600013801460091142849D80099DFE8C2
:102A400001F0370F0B1317231B1F272B2F33473F83
:102A500047474747473B430002208DF807003BE0CC
:102A600003208DF8070037E006208DF8070033E0DB
:102A700007208DF807002FE009208DF807002BE0D4
:102A80000A208DF8070027E01A208DF8070023E0C0
:102A900022208DF807001FE023208DF807001BE09F
:102AA00028208DF8070017E029208DF8070013E093
:102AB0002A208DF807000FE00C208DF807000BE0AE
:102AC00025208DF8070007E074208DF8070003E04B
:102AD00000208DF80700FFE79DF8070002B070475F
:102AE00080B582B001908DF8031055208DF802005A
:102AF0009DF802008DF800009DF803008DF801009C
:102B00000198FDF763FF019869460222FFF710F96B
:102B1000014640F2AA10C2F200000170007802B033
:102B200080BD0000D0B502AF8AB047F80C0C07F8A2
:102B30000D1C47F8142C07F8153C552007F8160C07
:102B400017F8151C881C6A4647F81C2C093121F01F
:102B500007026946891A8D460A4647F82C2C47F821
:102B6000200C17F8160C087017F80D0C4870002090
:102B700047F8240CFFE757F8240C17F8151C02310E
:102B8000884210DAFFE757F82C2C57F8140C57F846
:102B9000241C405C11448870FFE757F8240C013076
:102BA00047F8240CE7E757F80C0CFDF70FFF57F830
:102BB0002C1C57F80C0C17F8152C0232FFF7B8F83C
:102BC00007F8250C17F8250C57F81C1C8D46A7F1A3
:102BD0000804A546D0BD000082B08DF806009DF81F
:102BE00006000D38014600910D2841D80099DFE814
:102BF00001F02F372B271B1F23333B0B070F131716
:102C000008208DF8070037E007208DF8070033E033
:102C100009208DF807002FE00A208DF807002BE02F
:102C20000B208DF8070027E004208DF8070023E033
:102C300005208DF807001FE006208DF807001BE037
:102C400003208DF8070017E002208DF8070013E03D
:102C500001208DF807000FE014208DF807000BE02D
:102C60000E208DF8070007E015208DF8070003E01F
:102C700000208DF80700FFE79DF8070002B07047BD
:102C800082B0019001980079014600911E2866D01B
:102C9000FFE700982E2848D0FFE700984E2851D033
:102CA000FFE700985E280CD0FFE700988E282FD011
:102CB000FFE70098BE2811D0FFE70098EE281AD051
:102CC0005AE040F20401C2F200010020087040F214
:102CD0008801C2F200010220087059E040F20401AC
:102CE000C2F200010020087040F28801C2F2000127
:102CF000022008704CE040F20401C2F200010320FF
:102D0000087040F28801C2F20001012008703FE023
:102D100040F20401C2F200010420087040F2880170
:102D2000C2F200010020087032E040F20401C2F259
:102D300000010620087040F28801C2F20001002064
:102D4000087025E040F20401C2F20001072008707B
:102D500040F28801C2F200010220087018E040F23F
:102D60000401C2F200010A20087040F28801C2F298
:102D70000001032008700BE040F20401C2F20001E0
:102D8000FF20087040F28801C2F200010870FFE7DE
:102D900002B0704780B584B000200390FDF770FD4D
:102DA000FFF732FAFFF7D6F8FFF764F9FFF782F979
:102DB000FFF748F940F60000C4F20100019010212D
:102DC00001220292FDF7E0FC0198029A4FF40061A3
:102DD000FDF7DAFC40F25C10C2F2000002681169F3
:102DE00041F0400111610168C86840F02000C860EE
:102DF00040F21810C2F200000168086920F040009B
:102E00000861FFE7FEE7000080B584B003900291FF
:102E10000398007800F08F000299087003994878B1
:102E2000C978FFF7CBFCFFF7D7FEFFF7FDFD02994E
:102E300048700299002088700299C870029A602137
:102E4000117102994871029988710299C8718E2096
:102E50008DF8070002990DF107000822FFF73AF8F4
:102E60000299087204B080BD00000000000000005C
:102E70000102030406070809000000000102030420
:102E8000A02E00080000002090000000280100088B
:102E9000302F000890000020300700004401000897
:102EA0000024F400FF0A100E62065E6279350A21E2
:102EB0004D4B616C7567910A22696E20FFFFFFDB45
:102EC0000A066206EE483031EE0A100762068E30BE
:102ED00030870A213031FFFFFFFF730A0662062E9A
:102EE000777777F20A10106207204C49B60A214E14
:102EF00020414441504F0A225054455220FF770A46
:102F0000101762071E3030E60A2138373832382071
:102F1000A20A22202020202020130A232020202063
:102F20002020120000000000FF010100100000003E
:04000005080000ED02
:00000001FF
